:020000040800F2
:10000000900400203501000851100008EB0E000894
:10001000890F000843020008751500080000000061
:100020000000000000000000000000009510000823
:100030007702000800000000731000089710000805
:100040004F0100084F0100084F0100084F01000850
:100050004F0100084F0100084F0100084F01000840
:100060004F0100084F0100084F0100084F01000830
:100070004F0100084F0100084F0100084F01000820
:100080004F0100084F0100084F0100080000000068
:100090000000000000000000000000004F01000808
:1000A0004F0100084F0100084F0100084F010008F0
:1000B0004F0100084F0100084F0100084F010008E0
:1000C0004F0100084F0100084F0100084F010008D0
:1000D0004F0100085D150008691500084F01000870
:1000E0004F0100084F0100084F0100080000000008
:1000F0000000000000000000000000000000000000
:1001000000000000000000000000000000000000EF
:1001100000000000000000004F0100084F0100082F
:10012000DFF80CD000F06CF8004800478D1800088C
:10013000900400200648804706480047FEE7FEE797
:10014000FEE7FEE7FEE7FEE7FEE7FEE7FEE7FEE787
:10015000E510000821010008202A04DB203A21FADA
:1001600002F00021704721FA02F3D040C2F12002D0
:100170009140084319467047D2B201E000F8012BC4
:10018000491EFBD270470022F6E710B513460A4617
:1001900004461946FFF7F0FF204610BD2DE9F05F39
:1001A0000546002092469B468846064681464024E6
:1001B0001BE02846414647462246FFF7CDFF5346FF
:1001C0005A46C01A914110D311461846224600F0F3
:1001D00029F82D1A67EB01084F462246012000211D
:1001E00000F020F817EB00094E41201EA4F1010495
:1001F000DFDC484631462A464346BDE8F09F000012
:10020000064C074D06E0E06840F0010394E8070063
:1002100098471034AC42F6D3FFF786FF1C1900084C
:100220003C190008202A04DB203A00FA02F10020E1
:1002300070479140C2F1200320FA03F31943904024
:100240007047FEE770B505464FF6FF7000224AF290
:1002500001040DE0AB5C58400023C6074FEA500094
:1002600000D060405B1C9BB2082BF6D3521C92B2AC
:100270008A42EFD370BD704710B590F8211000246A
:10028000022903D00421816301243DE001680A684A
:1002900022F00E020A6001680A6822F001020A6078
:1002A0001A4A0168914201D1012121E0174A143212
:1002B000914201D110211BE0144A2832914201D110
:1002C000891515E0114A3C32914201D189140FE0A1
:1002D0000E4A5032914202D14FF4803108E00B4A6D
:1002E0006432914202D14FF4801101E04FF08071ED
:1002F000064A083A5160012180F82110002180F857
:100300002010416B01B18847204610BD0800024013
:1003100070B5044600F0F2F80546601C02D00448AF
:100320000078044400F0EAF8401BA042FAD370BD04
:10033000000000202DE9F84FDFF890A100220AF11B
:10034000040B144601274FF00F090BF1040E00BFF8
:100350000B6807FA04F52B40AB4274D1DFF870C18B
:100360004E68A6EB0C0866452BD00DDC032E34D06E
:1003700005DC36B3012E19D0022E2FD11BE0112E31
:1003800016D0122E2AD119E0B8F5881F19D006DC34
:10039000B8F5803F15D0B8F5801F1FD111E0B8F532
:1003A000001F0ED0B8F5041F18D10AE0CA6815E086
:1003B000CA68121D12E0CA6808320FE0CA680C321F
:1003C0000CE08A682AB1012A4FF0080203D0456187
:1003D00004E0042202E0056100E00022FF2B01D8C6
:1003E000064601E000F104064FEA840501D9A5F1B3
:1003F0002005D6F800C009FA05F82CEA080C02FA24
:1004000005F54CEA050CC6F800C04D68ED0057D55F
:10041000304DAE6946F00106AE61AD6924F00306C9
:1004200005F0010500952C4D06EB050CDCF8085095
:10043000A6074FEA167809FA08F6B543274EB042E8
:1004400002D1002610E03BE0254EB04201D101264A
:100450000AE0244EB04201D1022605E0224EB0420D
:1004600001D1032600E0042606FA08F62E43CCF854
:1004700008604D68DAF80060ED03554601D51E436B
:1004800000E09E432E604D68DBF80060AD035D46E2
:1004900001D51E4300E09E432E604D68DEF80060EB
:1004A000ED02754601D51E4300E09E432E604D6867
:1004B000AD020E4D2E6801D51E4300E09E432E6016
:1004C000641C102CFFF444AFBDE8F88F0004014019
:1004D000000011100010024000000140000801401F
:1004E000000C014000100140001401400C040140C8
:1004F0000AB1016170470904FBE700000148806808
:100500007047000000000020024881680278114412
:10051000816070470000002010B5032000F072F8E1
:10052000002000F005F800F023F8002010BD0000C6
:1005300070B50D4D04464FF47A712878B1FBF0F098
:100540000A490968B1FBF0F000F0D8FA48B9102C5C
:1005500007D200222146501E00F034F800206C60C3
:1005600070BD012070BD0000000000200C000020C4
:100570000C4808B5816941F001018161816901F090
:1005800001010091C16941F08051C161C06900F071
:10059000805000900448416821F0E06141F0007112
:1005A000416008BD001002400000014000F01F0241
:1005B000012191404009800000F1E020C0F80011C5
:1005C00070470000F0B40E4B1B680C46C3F30223C7
:1005D000C3F10705042D00D90425191D072901D2EF
:1005E000002300E0DB1E012606FA05F1491E21402A
:1005F00099409E40761E16403143F0BC00F029BD64
:100600000CED00E0064900F0070208684FF6FF0312
:10061000184040EA0220034A104308607047000077
:100620000CED00E00000FA052DE9F04105460068F8
:100630003F4C810712D5400703D5606840F4E06065
:1006400060602878000703D5606840F460506060FF
:100650006068A96820F0F000084360602878C0074F
:1006600043D06868012804D02168022804D0890793
:1006700003E02168890300E08901002902DB0120F1
:10068000BDE8F081616821F0030101436160FFF77B
:1006900035FF0746686841F28836012807D00228EE
:1006A00011D01EE0FFF72AFFC01BB04217D86068C8
:1006B000C0F381000128F5D117E000BFFFF71EFF4E
:1006C000C01BB0420BD86068C0F381000228F5D18E
:1006D0000BE000BFFFF712FFC01BB04201D903209F
:1006E000CEE7606810F00C0FF4D12878400705D5EC
:1006F0006068E96820F4E0600843606028780007DB
:1007000006D56068296920F4605040EAC100606045
:1007100000F034F86168074AC1F30311515CC84026
:10072000054908600020FFF703FF0020A8E700004C
:1007300000100240041900080C000020044805497C
:1007400000684968044AC1F30221515CC8407047FF
:100750000C0000200010024014190008044805494C
:1007600000684968044AC1F3C221515CC84070471F
:100770000C000020001002401419000813A188B0DA
:100780000FC98DE80F0015A10DF1100C0FC98CE8F1
:100790000F00164A5168164801F00C03042B10D0C4
:1007A000082B0ED1C1F38343C9031DF803000AD5FA
:1007B000D16A04AA01F00F01515C0D4A5043B0FB0D
:1007C000F1F008B070470B494843FAE7020304050B
:1007D000060708090A0B0C0D0E0F10100102030486
:1007E00005060708090A0B0C0D0E0F100010024039
:1007F00000127A0000093D002DE9F84F0446007808
:10080000B94DC00748D06868C0F38100012807D0FF
:100810006868C0F38100022809D16868C00306D562
:100820002868800338D5606800286FD034E060689D
:10083000B0F5803F0BD010B1B0F5A02F11D02868D3
:1008400020F480302860286820F4802002E02868A6
:1008500040F480302860606888B1FFF74FFE06469C
:1008600009E0286840F480202860F0E7FFF746FEA2
:10087000801B642875D828688003F7D50CE0FFF743
:100880003DFE064605E000BFFFF738FE801B6428EA
:10089000F0D828688003F7D42078944E80074FF072
:1008A00001094FF000083BD5686810F00C0F07D025
:1008B0006868C0F38100022809D16868C00306D4C3
:1008C0002868800714D5206901281FD110E020690D
:1008D000B0B1C6F80090FFF711FE074605E000BF73
:1008E000FFF70CFEC01B0228C4D828688007F7D584
:1008F0002868616920F0F80040EAC10028600FE034
:10090000C6F80080FFF7FAFD074606E0E9E000BF01
:10091000FFF7F4FDC01B022823D828688007F7D40E
:10092000207800072CD57248A169D9B1C0F8009091
:10093000FFF7E4FD074604E0FFF7E0FDC01B0228D7
:100940000FD8686A8007F7D56A484FF4FA510068F3
:10095000B0FBF1F0009000BF0098411E0091FAD268
:100960000EE080E0C0F80080FFF7C8FD074604E015
:10097000FFF7C4FDC01B022875D8686A8007F7D44A
:100980002078400760D5E8690027C00008D4E869EE
:1009900040F08050E861E869012700F08050009045
:1009A00055480168C90513D40168834641F4807134
:1009B0000160FFF7A3FD824606E000BFFFF79EFD42
:1009C000A0EB0A0064284ED8DBF80000C005F5D57E
:1009D000E06801280AD008B1052813D0286A20F061
:1009E00001002862286A20F0040002E0286A40F032
:1009F00001002862E06841F2883B98B1FFF77EFD74
:100A000082460BE0286A40F004002862EEE700BF4F
:100A1000FFF774FDA0EB0A0159455AD8286A8007F0
:100A2000F6D50CE0FFF76AFD824605E0FFF766FDAC
:100A3000A0EB0A0159454CD8286A8007F6D41FB1AB
:100A4000E86920F08050E861E06988B36968C1F323
:100A50008101022945D00228C6F8608004D0FFF742
:100A60004DFD044638E034E0FFF748FD074604E05A
:100A7000FFF744FDC01B02282BD828688001F7D45B
:100A8000206AB0F5803F05D1E86AA16820F00F0028
:100A90000843E862D4E908010843696821F4741145
:100AA00008436860C6F86090FFF728FD044606E03A
:100AB00015E000BFFFF722FD001B022809D82868B7
:100AC0008001F7D50BE000BFFFF718FD001B0228DF
:100AD00002D90320BDE8F88F28688001F4D40020F3
:100AE000F8E70120F6E70000001002400000424253
:100AF000800442420C0000200070004010B5401EEF
:100B0000B0F1807F01D3012010BD4FF0E02460617F
:100B10000F21601700F09DFA0020A06107202061DE
:100B2000002010BD7047000070B5026804461068D0
:100B3000D168536910F00F0F50D003F0010501F494
:100B4000907635435DD0C20705D0CA0503D5E26B68
:100B500042F00102E263420705D5DA0703D0E26BF7
:100B600042F00202E263820705D5DA0703D0E26BA6
:100B700042F00402E263020705D5DA0703D0E26B14
:100B800042F00802E263E26B002A33D0800604D50B
:100B9000880602D5204600F0E1FA20684069E16B42
:100BA000C0F38010090700D428B3204600F0C8FA2B
:100BB0002068416949061AD5416921F04001416127
:100BC000606BA0B11B494163606BFFF755FB0028C8
:100BD00010D0606B416BBDE870400847830610D5AC
:100BE0008B060ED52046BDE8704000F0B7BA20460F
:100BF000FFF798FF70BD2046FFF794FF0020E063E9
:100C000070BD030606D50B0604D52046BDE870402E
:100C100000F040BC4006F3D54806F1D5D168204627
:100C200021F04001D160202184F8391000F05CF9F6
:100C300070BD00003111000870B5040004D094F8B4
:100C40003900002510B106E0012070BD84F838504D
:100C5000204600F023F8242084F839002068C16879
:100C600021F40051C160204600F0C4FA20680169F7
:100C700021F4904101612068416921F02A0141611C
:100C80002068C16841F40051C160E563202084F808
:100C9000390084F83A00002070BD000070B586B0BD
:100CA000002400940194029403942E4E03682E496C
:100CB000022003222D4DB34226D18B6943F4804399
:100CC0008B618B6903F4804304938B6943F00403C5
:100CD0008B618969039201F0040104910102CDE95D
:100CE000001069462846FFF725FB2815CDE90004CA
:100CF000694628460294FFF71DFB00221146252075
:100D0000FFF760FC252028E0194EB34227D1CB69BC
:100D100043F40033CB61CB6903F4003304938B6954
:100D200043F004038B618969039201F0040104918B
:100D30000421CDE9001069462846FFF7FBFA082098
:100D4000CDE90004694628460294FFF7F3FA002231
:100D500011462620FFF736FC2620FFF727FC06B0B9
:100D600070BD000000380140001002400008014042
:100D7000004400402DE9F843044690F83A009946B3
:100D800016460D4620284FD195B18EB194F8380003
:100D9000012849D0012084F838000027E763222089
:100DA00084F83A00FFF7AAFBA6858046E68531E085
:100DB0000120BDE8F883E08D401EE085A068434631
:100DC000B0F5805F4FF000024FF020012046CDF8D3
:100DD000009004D000F08FFB98B10320E9E700F009
:100DE0008AFB0028F9D1206900282068406803D0D8
:100DF000C1B225F8011B0DE0C0F3080125F8021B64
:100E000008E0206900282068406801D000F07F00D9
:100E100005F8010BE08D0028CDD1202084F83A00A0
:100E200084F838700020C4E70220C2E770472DE93B
:100E3000F843044690F839001F4616460D46202810
:100E400050D1A5B19EB194F8380001284AD00120B4
:100E500084F838004FF00008C4F83C80212084F862
:100E60003900FFF74BFBA6848146E68426E001208B
:100E7000BDE8F883E08C401EE084A0684B46B0F5E6
:100E8000805F4FF000024FF080012046009703D0B2
:100E900000F031FBE8B90DE000F02DFBC8B928885F
:100EA0002168C0F308004860206908B16D1C05E0A6
:100EB000AD1C03E0216815F8010B4860E08C0028A8
:100EC000D8D14B46002240212046009700F013FB6A
:100ED00008B10320CCE7202084F8390084F838805A
:100EE0000020C5E70220C3E77047FEE72DE9F04385
:100EF00085B00024214800940194029403948169F0
:100F000041F020018161816901F020010491816932
:100F100041F004018161816901F00401049181695A
:100F200041F0100181618069DFF8548000F0100009
:100F30000490002202214046FFF7DAFADFF84490DD
:100F40004FF40077002239464846FFF7D1FA0220D5
:100F500001250326CDE90005CDE902466946404654
:100F6000FFF7E8F900970396CDE901546946484632
:100F7000FFF7E0F905B0BDE8F08300000010024083
:100F80000008014000100140FEE7000010B52AA350
:100F90008AB0D3E90023CDE90723020A8DF81E2089
:100FA0008DF81F00080A8DF820008DF82110062109
:100FB00007A8FFF747F98DF82200000A8DF82300F3
:100FC00000F060F84FF480742346082207A91C48FB
:100FD000FFF72DFF00282CD100F04CF82346072204
:100FE00069461748FFF7C6FE002822D19DF8022067
:100FF00014A109A800F0C0FA9DF8032011A10DF179
:10100000260000F0B9FA012251020F48FFF770FAEA
:101010006420FFF77DF90A482346042209A94038D5
:10102000FFF705FF06482346022208A14038FFF7D4
:10103000FEFE0AB010BD0000010400000000000028
:101040005000002025780000001001400D0A00002B
:1010500070470907090E002806DA00F00F0000F1BA
:10106000E02080F8141D704700F1E02080F80014A3
:1010700070477047002202210148FFF739BA00008B
:1010800000080140012202210148FFF731BA0000A7
:10109000000801407047FFF737BA30B58FB02821FC
:1010A0006846FFF770F814210AA8FFF76CF80120D2
:1010B000009000040024CDE901040225CDE9075089
:1010C000800009906846FFF797FB0F200A90CDE952
:1010D0000B540D9400210AA80E94FFF7A5FA0FB047
:1010E00030BD00000E48016841F001010160416817
:1010F0000C4A1140416001680B4A114001600168CF
:1011000021F480210160416821F4FE0141604FF427
:101110001F0181600021C1620449C003086070475B
:10112000001002400000FFF8FFFFF6FE08ED00E0AF
:1011300010B5406A0021C185C184FFF7F3FC10BDE2
:101140000168CA6822F49072CA6001684A6922F094
:1011500001024A61202180F83A10704710B590F8DA
:101160003A10222901D0022010BD8168B1F5805FBC
:1011700011D00169002901681FD0496801F07F037F
:10118000816A4A1C82620B70C18D491E0904090CD8
:10119000C18518D02BE00269816A002A0268526872
:1011A00005D0D2B20A80816A491C8162ECE7C2F3A1
:1011B00008020A80816A891CF7E74A68816A4B1C29
:1011C00083620A70E0E70168CA6822F02002CA6000
:1011D0000168CA6822F48072CA6001684A6922F014
:1011E00001024A61202180F83A10FFF71FFE00201B
:1011F00010BD00002DE9F041044600680169E26875
:1012000021F44051114301612169A068E26908435A
:101210006169114322680843D16849F20C6399431C
:101220000143D16020684169A26921F440711143F2
:101230004161E1696425B1F5004F954821684FF09F
:1012400032083DD081427AD1FFF788FA00EBC00125
:1012500001EB001061688900B0FBF1F6FFF77EFA40
:1012600000EBC00101EB001061688900B0FBF1F0F8
:10127000B0FBF5F06FF01801484306EB800108EB76
:101280000110B0FBF5F000F0F006FFF767FA00EB95
:10129000C00101EB001061688900B0FBF1F0B0FB08
:1012A000F5F006EB0016FFF759FA00EBC00101EB71
:1012B000001061688900B0FBF1F7FFF74FFAD0E04A
:1012C00081423DD1FFF74AFA00EBC00101EB00106B
:1012D00061684900B0FBF1F0B0FBF5F00601FFF7E3
:1012E0003DFA00EBC00101EB001061684900B0FB62
:1012F000F1F7FFF733FA00EBC00101EB0010616872
:101300004900B0FBF1F0B0FBF5F06FF01801484375
:1013100007EB800108EBC100B0FBF5F000F0F8002E
:1013200006EB4006FFF71AFA00EBC00101EB0010D4
:1013300061684900B0FBF1F7FFF710FA3CE055E0B7
:10134000FFF7FCF900EBC00101EB001061684900F8
:10135000B0FBF1F0B0FBF5F00601FFF7EFF900EBA1
:10136000C00101EB001061684900B0FBF1F7FFF725
:10137000E5F900EBC00101EB001061684900B0FB2A
:10138000F1F0B0FBF5F06FF01801484307EB800176
:1013900008EBC100B0FBF5F000F0F80006EB4006EA
:1013A000FFF7CCF900EBC00101EB001061684900C8
:1013B000B0FBF1F7FFF7C2F900EBC00101EB001041
:1013C00061684900B0FBF1F0B0FBF5F06FF0180177
:1013D000484307EB800108EBC100B0FBF5F000F0DB
:1013E0000700216830448860BDE8F081FFF7A6F966
:1013F00000EBC00101EB001061688900B0FBF1F661
:10140000FFF79CF900EBC00101EB00106168890057
:10141000B0FBF1F0B0FBF5F06FF01801484306EBBC
:10142000800108EB0110B0FBF5F000F0F006FFF7CB
:1014300085F900EBC00101EB001061688900B0FB89
:10144000F1F0B0FBF5F006EB0016FFF777F900EBD3
:10145000C00101EB001061688900B0FBF1F7FFF7F4
:101460006DF900EBC00101EB001061688900B0FB71
:10147000F1F0B0FBF5F06FF01801484307EB800185
:1014800008EB0110B0FBF5F000F00F00A9E7000039
:101490000038014090F83910212901D0022070470E
:1014A0008168B1F5805F016A0BD04A1C0262026854
:1014B00009785160C18C491E0904090CC1840ED001
:1014C00017E009880268C1F3080151600169002929
:1014D000016A02D0491C0162ECE7891CFBE7016844
:1014E000CA6822F08002CA600068C16841F0400109
:1014F000C160002070472DE9F041984617460E461E
:101500000446069D1DE0681C1BD02DB1FEF7F6FFBA
:10151000A0EB0800A84214D92068C16821F4D0715A
:10152000C1602068416921F001014161202084F8F7
:10153000390084F83A00002084F838000320BDE820
:10154000F0812068006836EA000004D00020B8422C
:10155000D9D00020F3E70120F9E700000148FFF7A8
:10156000E3BA0000100000200148FFF7DDBA0000D8
:1015700050000020FEE700000FB4084B10B504A98E
:1015800002AA039800F01CF8044602A9002000F00B
:1015900077F9204610BC5DF814FB000081180008A4
:1015A00002E008C8121F08C1002AFAD1704770472C
:1015B000002001E001C1121F002AFBD1704700008A
:1015C0002DE9FF4F8DB09B460F460446002606E0EE
:1015D00025280BD05A460F999047641C761C20781A
:1015E0000028F5D111B03046BDE8F08F0025A8469F
:1015F0000122984900E0054314F8013F203B02FA1C
:1016000003F00842F7D120782E2817D114F8010FE3
:1016100045F004052A280ED06FF02F022078A0F1A3
:10162000300109290AD808EB880102EB410100EBDF
:101630000108641CF2E757F8048B641C20786C28BE
:101640000DD004DC4C2812D06A2811D104E0742893
:101650000DD07A280CD10AE045F4001507E0617836
:1016600045F48015814202D1641C05F58015641C87
:101670002278692A45D008DC002AB3D0582A69D0DC
:10168000632A10D0642A08D13BE0702A67D0732AFD
:1016900013D0752A5CD0782A5CD010465A460F9930
:1016A0009047761CD3E017F8040B8DF8000000205B
:1016B0008DF80100E946012003E057F8049B4FF044
:1016C000FF3069074FF0000501D40AE06D1C454565
:1016D0000DDA8542FADB19F805100029F6D106E08B
:1016E0006D1C8542FCDB19F805100029F8D12E4449
:1016F00004E019F8010B5A460F9990476D1EF8D275
:10170000A5E00A200021CDE90801C5F30250022816
:101710000DD001CFC117031E71F100030DDA4FF098
:10172000000CD0EB0C006CEB01012D2308E0FF1D39
:1017300027F00707F7E80201EDE72B0504D52B2377
:101740008DF8283001233BE0EB0739D02023F7E761
:101750000A2000E010200021CDE9080107E0102058
:10176000002145F00405CDE908014FF00808C5F354
:10177000025002280FD001CF00214FF0000A2B07A2
:101780001FD5702A0DD0DDE908C38CF0100C5CEA7F
:10179000030C0CD015E0FF1D27F00707F7E8020146
:1017A000EBE740228DF828204FF0010A0BE050EAC9
:1017B000010306D030238DF828308DF8292002232C
:1017C0009A46582A04D024A20DF120090B9209E070
:1017D00026A2F9E7DDE90823FEF7E0FC0B9B9B5C02
:1017E00009F8013D50EA0102F4D1ADEB09002030C7
:1017F0000890680701D44FF001080899884502DD78
:10180000A8EB010000E000208046002506E00AA8C1
:101810005A46405D0F9990476D1C761C5545F6DB86
:1018200004E030205A460F999047761CB8F1000129
:10183000A8F10108F5DC05E019F8010B5A460F99EB
:101840009047761C0899481E08900029F4DC641C17
:10185000C5E600000928010030313233343536370F
:1018600038396162636465660000000030313233EC
:10187000343536373839414243444546000000008C
:101880000A68531C0B60107070470000FEF744FE9E
:10189000FFF703FCFFF72AFB174816494FF496455C
:1018A00000240160C0E901540C26C460C0E904466C
:1018B0008461C461FFF7C0F90F48104940300160EE
:1018C000C0E90154C460C0E904468461C461FFF703
:1018D000B3F90B4D4FF40074002221462846FEF761
:1018E00007FE01210E20FFF751FB6420FEF710FDDB
:1018F000F2E70000003801401000002000440040E2
:10190000001001400000000000000000010203047C
:101910000607080900000000010203043C19000842
:101920000000002010000000A01500084C1900085D
:101930001000002080040000B01500080100000025
:0C194000100000000000000000366E01E6
:0400000508000121CD
:00000001FF
