:020000040800F2
:10000000D00700203501000865140008BF0E000865
:100010005D0F0008A1010008891900080000000018
:10002000000000000000000000000000A91400080B
:10003000D50100080000000087140008AB14000878
:100040004F0100084F0100084F0100084F01000850
:100050004F0100084F0100084F0100084F01000840
:100060004F0100084F0100084F0100084F01000830
:100070004F0100084F0100084F0100084F01000820
:100080004F0100084F0100084F0100080000000068
:100090000000000000000000000000004F01000808
:1000A0004F0100084F0100084F0100084F010008F0
:1000B0004F0100084F0100084F0100084F010008E0
:1000C0004F0100084F0100084F0100084F010008D0
:1000D0004F010008711900087D1900084F01000840
:1000E0004F0100084F0100084F0100080000000008
:1000F0000000000000000000000000000000000000
:1001000000000000000000000000000000000000EF
:1001100000000000000000004F0100084F0100082F
:10012000DFF80CD000F02AF8004800470D1B00084B
:10013000D00700200648804706480047FEE7FEE754
:10014000FEE7FEE7FEE7FEE7FEE7FEE7FEE7FEE787
:10015000F914000821010008D2B201E000F8012BD7
:10016000491EFBD270470022F6E710B513460A4637
:1001700004461946FFF7F0FF204610BD064C074D18
:1001800006E0E06840F0010394E807009847103467
:10019000AC42F6D3FFF7C8FF541C0008741C0008DB
:1001A000FEE770B505464FF6FF7000224AF20104E3
:1001B0000DE0AB5C58400023C6074FEA500000D06A
:1001C00060405B1C9BB2082BF6D3521C92B28A4251
:1001D000EFD370BD704701680A6822F00E020A6012
:1001E00001680A6822F001020A6090F84020C36B9F
:1001F000012101FA02F25A6080F82110002180F8F2
:10020000201008467047000010B590F82110002417
:10021000022903D00421816301243DE001680A68BA
:1002200022F00E020A6001680A6822F001020A60E8
:100230001A4A0168914201D1012121E0174A143282
:10024000914201D110211BE0144A2832914201D180
:10025000891515E0114A3C32914201D189140FE011
:100260000E4A5032914202D14FF4803108E00B4ADD
:100270006432914202D14FF4801101E04FF080715D
:10028000064A083A5160012180F82110002180F8C7
:100290002010416B01B18847204610BD0800024084
:1002A00070B5044600F0F2F80546601C02D0044820
:1002B0000078044400F0EAF8401BA042FAD370BD75
:1002C000200000202DE9F84FDFF890A100220AF16C
:1002D000040B144601274FF00F090BF1040E00BF69
:1002E0000B6807FA04F52B40AB4274D1DFF870C1FC
:1002F0004E68A6EB0C0866452BD00DDC032E34D0DF
:1003000005DC36B3012E19D0022E2FD11BE0112EA1
:1003100016D0122E2AD119E0B8F5881F19D006DCA4
:10032000B8F5803F15D0B8F5801F1FD111E0B8F5A2
:10033000001F0ED0B8F5041F18D10AE0CA6815E0F6
:10034000CA68121D12E0CA6808320FE0CA680C328F
:100350000CE08A682AB1012A4FF0080203D04561F7
:1003600004E0042202E0056100E00022FF2B01D836
:10037000064601E000F104064FEA840501D9A5F123
:100380002005D6F800C009FA05F82CEA080C02FA94
:1003900005F54CEA050CC6F800C04D68ED0057D5D0
:1003A000304DAE6946F00106AE61AD6924F003063A
:1003B00005F0010500952C4D06EB050CDCF8085006
:1003C000A6074FEA167809FA08F6B543274EB04259
:1003D00002D1002610E03BE0254EB04201D10126BB
:1003E0000AE0244EB04201D1022605E0224EB0427E
:1003F00001D1032600E0042606FA08F62E43CCF8C5
:1004000008604D68DAF80060ED03554601D51E43DB
:1004100000E09E432E604D68DBF80060AD035D4652
:1004200001D51E4300E09E432E604D68DEF800605B
:10043000ED02754601D51E4300E09E432E604D68D7
:10044000AD020E4D2E6801D51E4300E09E432E6086
:10045000641C102CFFF444AFBDE8F88F0004014089
:10046000000011100010024000000140000801408F
:10047000000C014000100140001401400C04014038
:100480000AB1016170470904FBE700000148806878
:100490007047000020000020024881680278114463
:1004A000816070472000002010B5032000F072F832
:1004B000002000F005F800F023F8002010BD000037
:1004C00070B50D4D04464FF47A712878B1FBF0F009
:1004D0000A490968B1FBF0F000F0D8FA48B9102CCD
:1004E00007D200222146501E00F034F800206C6034
:1004F00070BD012070BD0000200000202C000020F5
:100500000C4808B5816941F001018161816901F000
:1005100001010091C16941F08051C161C06900F0E1
:10052000805000900448416821F0E06141F0007182
:10053000416008BD001002400000014000F01F02B1
:10054000012191404009800000F1E020C0F8001135
:1005500070470000F0B40E4B1B680C46C3F3022337
:10056000C3F10705042D00D90425191D072901D25F
:10057000002300E0DB1E012606FA05F1491E21409A
:1005800099409E40761E16403143F0BC00F06BBF90
:100590000CED00E0064900F0070208684FF6FF0383
:1005A000184040EA0220034A1043086070470000E8
:1005B0000CED00E00000FA052DE9F0410546006869
:1005C0003F4C810712D5400703D5606840F4E060D6
:1005D00060602878000703D5606840F46050606070
:1005E0006068A96820F0F000084360602878C007C0
:1005F00043D06868012804D02168022804D0890704
:1006000003E02168890300E08901002902DB012061
:10061000BDE8F081616821F0030101436160FFF7EB
:1006200035FF0746686841F28836012807D002285E
:1006300011D01EE0FFF72AFFC01BB04217D8606838
:10064000C0F381000128F5D117E000BFFFF71EFFBE
:10065000C01BB0420BD86068C0F381000228F5D1FE
:100660000BE000BFFFF712FFC01BB04201D903200F
:10067000CEE7606810F00C0FF4D12878400705D55C
:100680006068E96820F4E06008436060287800074B
:1006900006D56068296920F4605040EAC1006060B6
:1006A00000F034F86168074AC1F30311515CC84097
:1006B000054908600020FFF703FF0020A8E70000BD
:1006C000001002403C1C00082C0000200448054992
:1006D00000684968044AC1F30221515CC840704770
:1006E0002C000020001002404C1C00080448054962
:1006F00000684968044AC1F3C221515CC840704790
:100700002C000020001002404C1C000813A188B0EF
:100710000FC98DE80F0015A10DF1100C0FC98CE861
:100720000F00164A5168164801F00C03042B10D034
:10073000082B0ED1C1F38343C9031DF803000AD56A
:10074000D16A04AA01F00F01515C0D4A5043B0FB7D
:10075000F1F008B070470B494843FAE7020304057B
:10076000060708090A0B0C0D0E0F101001020304F6
:1007700005060708090A0B0C0D0E0F1000100240A9
:1007800000127A0000093D002DE9F84F0446007878
:10079000B94DC00748D06868C0F38100012807D070
:1007A0006868C0F38100022809D16868C00306D5D3
:1007B0002868800338D5606800286FD034E060680E
:1007C000B0F5803F0BD010B1B0F5A02F11D0286844
:1007D00020F480302860286820F4802002E0286817
:1007E00040F480302860606888B1FFF74FFE06460D
:1007F00009E0286840F480202860F0E7FFF746FE13
:10080000801B642875D828688003F7D50CE0FFF7B3
:100810003DFE064605E000BFFFF738FE801B64285A
:10082000F0D828688003F7D42078944E80074FF0E2
:1008300001094FF000083BD5686810F00C0F07D095
:100840006868C0F38100022809D16868C00306D433
:100850002868800714D5206901281FD110E020697D
:10086000B0B1C6F80090FFF711FE074605E000BFE3
:10087000FFF70CFEC01B0228C4D828688007F7D5F4
:100880002868616920F0F80040EAC10028600FE0A4
:10089000C6F80080FFF7FAFD074606E0E9E000BF72
:1008A000FFF7F4FDC01B022823D828688007F7D47F
:1008B000207800072CD57248A169D9B1C0F8009002
:1008C000FFF7E4FD074604E0FFF7E0FDC01B022848
:1008D0000FD8686A8007F7D56A484FF4FA51006864
:1008E000B0FBF1F0009000BF0098411E0091FAD2D9
:1008F0000EE080E0C0F80080FFF7C8FD074604E086
:10090000FFF7C4FDC01B022875D8686A8007F7D4BA
:100910002078400760D5E8690027C00008D4E8695E
:1009200040F08050E861E869012700F080500090B5
:1009300055480168C90513D40168834641F48071A4
:100940000160FFF7A3FD824606E000BFFFF79EFDB2
:10095000A0EB0A0064284ED8DBF80000C005F5D5EE
:10096000E06801280AD008B1052813D0286A20F0D1
:1009700001002862286A20F0040002E0286A40F0A2
:1009800001002862E06841F2883B98B1FFF77EFDE4
:1009900082460BE0286A40F004002862EEE700BFC0
:1009A000FFF774FDA0EB0A0159455AD8286A800761
:1009B000F6D50CE0FFF76AFD824605E0FFF766FD1D
:1009C000A0EB0A0159454CD8286A8007F6D41FB11C
:1009D000E86920F08050E861E06988B36968C1F394
:1009E0008101022945D00228C6F8608004D0FFF7B3
:1009F0004DFD044638E034E0FFF748FD074604E0CB
:100A0000FFF744FDC01B02282BD828688001F7D4CB
:100A1000206AB0F5803F05D1E86AA16820F00F0098
:100A20000843E862D4E908010843696821F47411B5
:100A300008436860C6F86090FFF728FD044606E0AA
:100A400015E000BFFFF722FD001B022809D8286827
:100A50008001F7D50BE000BFFFF718FD001B02284F
:100A600002D90320BDE8F88F28688001F4D4002063
:100A7000F8E70120F6E700000010024000004242C3
:100A8000800442422C0000200070004010B5401E3F
:100A9000B0F1807F01D3012010BD4FF0E0246061F0
:100AA0000F21601700F0DFFC0020A061072020610B
:100AB000002010BD70B504460068C16821F4907133
:100AC000C1602068416921F00101416120684169EC
:100AD0004FF00005490609D5416921F04001416107
:100AE000606B18B14563606BFFF775FBE5852020EF
:100AF00084F83A00002070BD7047000070B50268AD
:100B000004461068D168536910F00F0F50D003F0FD
:100B1000010501F4907635435DD0C20705D0CA05C2
:100B200003D5E26B42F00102E263420705D5DA0722
:100B300003D0E26B42F00202E263820705D5DA07D6
:100B400003D0E26B42F00402E263020705D5DA0744
:100B500003D0E26B42F00802E263E26B002A33D07A
:100B6000800604D5880602D5204600F001FD2068E5
:100B70004069E16BC0F38010090700D428B3204618
:100B800000F0E8FC2068416949061AD5416921F066
:100B900040014161606BA0B11B494163606BFFF78D
:100BA00033FB002810D0606B416BBDE870400847F4
:100BB000830610D58B060ED52046BDE8704000F0A8
:100BC000D7BC2046FFF798FF70BD2046FFF794FF83
:100BD0000020E06370BD030606D50B0604D5204651
:100BE000BDE8704000F060BE4006F3D54806F1D580
:100BF000D168204621F04001D160202184F83910CD
:100C000000F05CF970BD00004515000870B50400E7
:100C100004D094F83900002510B106E0012070BD21
:100C200084F83850204600F023F8242084F8390056
:100C30002068C16821F40051C160204600F0E4FC46
:100C40002068016921F4904101612068416921F027
:100C50002A0141612068C16841F40051C160E56327
:100C6000202084F8390084F83A00002070BD00008C
:100C700070B586B0002400940194029403942E4E23
:100C800003682E49022003222D4DB34226D18B69E1
:100C900043F480438B618B6903F4804304938B6935
:100CA00043F004038B618969039201F0040104910C
:100CB0000102CDE9001069462846FFF703FB28151D
:100CC000CDE90004694628460294FFF7FBFA0022AA
:100CD00011462520FFF73EFC252028E0194EB3429F
:100CE00027D1CB6943F40033CB61CB6903F40033E4
:100CF00004938B6943F004038B618969039201F0CB
:100D0000040104910421CDE9001069462846FFF74B
:100D1000D9FA0820CDE90004694628460294FFF775
:100D2000D1FA002211462620FFF714FC2620FFF7F7
:100D300005FC06B070BD0000003801400010024004
:100D400000080140004400402DE9F843044690F8B3
:100D50003A00994616460D4620284FD195B18EB1DE
:100D600094F83800012849D0012084F83800002781
:100D7000E763222084F83A00FFF788FBA6858046C7
:100D8000E68531E00120BDE8F883E08D401EE08576
:100D9000A0684346B0F5805F4FF000024FF020019D
:100DA0002046CDF8009004D000F0AFFD98B10320AC
:100DB000E9E700F0AAFD0028F9D1206900282068A1
:100DC000406803D0C1B225F8011B0DE0C0F3080153
:100DD00025F8021B08E0206900282068406801D03F
:100DE00000F07F0005F8010BE08D0028CDD1202018
:100DF00084F83A0084F838700020C4E70220C2E783
:100E000070472DE9F843044690F839001F4616460E
:100E10000D46202850D1A5B19EB194F83800012884
:100E20004AD0012084F838004FF00008C4F83C8014
:100E3000212084F83900FFF729FBA6848146E68447
:100E400026E00120BDE8F883E08C401EE084A06825
:100E50004B46B0F5805F4FF000024FF08001204616
:100E6000009703D000F051FDE8B90DE000F04DFD12
:100E7000C8B928882168C0F308004860206908B113
:100E80006D1C05E0AD1C03E0216815F8010B4860FE
:100E9000E08C0028D8D14B46002240212046009704
:100EA00000F033FD08B10320CCE7202084F839009E
:100EB00084F838800020C5E70220C3E77047FEE7CA
:100EC0002DE9F04385B00024214800940194029458
:100ED0000394816941F020018161816901F0200161
:100EE0000491816941F004018161816901F004018B
:100EF0000491816941F0100181618069DFF85480BB
:100F000000F010000490002202214046FFF7B8FADA
:100F1000DFF844904FF40077002239464846FFF747
:100F2000AFFA022001250326CDE90005CDE90246EE
:100F300069464046FFF7C6F900970396CDE901548C
:100F400069464846FFF7BEF905B0BDE8F0830000EA
:100F5000001002400008014000100140FEE70000C0
:100F60002DE9F04F34A20C46D2E9001289B0CDE948
:100F70000012010A8DF802108DF80300200A8DF886
:100F800004008DF8054006216846FFF70AF98DF840
:100F90000600000A8DF80700052000EB4400C4B2EB
:100FA000002500F079FA4FF480730822694624483E
:100FB000FFF727FF00283BD100F066FA00F0F8F9B0
:100FC0000646A84654B34FF4007ADFF878B00DF126
:100FD00008091D4F00F016FA10B1012811D013E0D6
:100FE000641EE4B2012251465846FFF749FA00F068
:100FF000EFF948B100F0DEF909F805006D1CEDB21B
:1010000002E012A000F064FD00F0D2F93988801BE4
:10101000884204D90EA000F05BFD24B905E024B19C
:10102000B8F1000FD6D00BA000E00BA000F050FDEF
:1010300009B0BDE8F08F00000103000000000000CF
:1010400070000020001001400000002045525200B6
:1010500054494D00424144004B594C002DE9F047A2
:10106000C2B0074600F0A4F94FF0000A8DF800A1C5
:1010700008208DF80401BE4C9DF8001156462278D8
:101080000DEB0103491C68468DF800111A709DF89C
:1010900000110DEB0102491C8DF800111770032F90
:1010A00009D004DC012F06D0022F24D103E0042F45
:1010B00001D0172F1FD1A1889DF800210B0A851898
:1010C000521C8DF800212B709DF800218318521CB2
:1010D0008DF800211970E1889DF800210B0A851810
:1010E000521C8DF800212B709DF800218318521C92
:1010F0008DF800211970102F0BD006DC052F08D0B9
:10110000062F06D00F2F14D103E0162F01D0172F72
:101110000FD121899DF800210B0A8518521C8DF8EA
:1011200000212B709DF800218318521C8DF800219E
:101130001970102F17DA052F02D0062F13D101E0F6
:10114000618901E08B4909889DF800210B0A851807
:10115000521C8DF800212B709DF800218318521C21
:101160008DF8002119704FF6FF7842460025814620
:1011700008E000BF19F80510104600F09AFC6D1C3D
:101180000246EDB29DF800018542F3D39DF80001BF
:101190004D4609EB0001401C8DF800010A709DF8D6
:1011A0000001110A09EB0002401C8DF800011170CA
:1011B0009DF80011D14605F801A000F01BF900F0E0
:1011C00003FD9DF80011684600F03EF98DF800918E
:1011D00000F0E8FC00F0ECF882464AE000F0F8F895
:1011E00070B100F0E7F802469DF800012918401C94
:1011F0008DF800010A709DF80401401E8DF804016D
:101200009DF8000107282DD19DF80010207881421B
:1012100001D0E0269FE09DF8010000F07F01B94277
:1012200001D0E12697E0C10902D09DF8026026E0D6
:10123000062812D006DC062814D2DFE800F0130BD3
:101240000B0B0B0E0F2808D0102806D0162806D03E
:10125000172807D19DF8020002E0032000E00520D6
:101260008DF8040100F0A4F8A0EB0A00962800D93C
:10127000E2269DF8040110B1002EAFD06BE00EBB4A
:101280009DF8000105281ED34046002704E0E95DD3
:1012900000F00FFC7F1CFFB29DF80011891E8F42E9
:1012A000F5DB9DF80021C1B22A4412F8022C9142CC
:1012B00007D19DF80011000A294411F8011C884249
:1012C00001D0E32647E02B4A9DF80100803A03282D
:1012D0002AD004DC012807D002283CD104E00428ED
:1012E00022D0172837D11FE000209DF802100CE013
:1012F000402807D205EB40073B79FF7807EB032333
:1013000022F81030E070401CC0B2B0EB510FEFD3A8
:10131000C90720D0402804D205EB4001C97822F843
:101320001010401CE07016E09DF802300020B0EB79
:10133000530F02D30FE0402807D205EB4007F9789E
:101340003F7907EB012122F81010E070401CC0B279
:10135000B0EB530FEFD300F02BF884F80190A4F812
:101360000C9084F8029042B03046BDE8F08700004F
:10137000040000204C030020044B18701981002049
:101380005881034802800620FFF768BE0400002051
:101390004C03002010B501464FF48073012203482E
:1013A000FFF7D2FC002800D0012010BD7000002003
:1013B000FFF76CB810B5FF24044800F026FC18B9FC
:1013C000024800F02AFC0446204610BD8C01002093
:1013D000074810B5807C012802D1054800F006FCC2
:1013E000034800F012FC08B1002010BD012010BD20
:1013F0008C01002010B5024800F0F8FB10BD000081
:101400008C01002038B56846FFF7C4FF040013D1F3
:101410000B490A4B9DF8002008781A54401CC0B2B2
:1014200008700C2808D90020087064211846FEF7BF
:101430009AFE0448FFF73EFB204638BD68020020B4
:1014400002000020700000200A4610B501464FF649
:10145000FF730348FFF7D5FC002800D0012010BD22
:101460007000002070470907090E002806DA00F016
:101470000F0000F1E02080F8141D704700F1E0201B
:1014800080F8001470477047002202210148FEF7DF
:10149000F7BF000000080140012202210148FEF7C9
:1014A000EFBF0000000801407047FEF7F5BF30B500
:1014B0008FB028216846FEF756FE14210AA8FEF7D1
:1014C00052FE0120009000040024CDE90104022511
:1014D000CDE90750800009906846FFF755F90F20C5
:1014E0000A90CDE90B540D9400210AA80E94FFF741
:1014F00063F80FB030BD00000E48016841F00101F3
:10150000016041680C4A1140416001680B4A11407A
:101510000160016821F480210160416821F4FE012D
:1015200041604FF41F0181600021C1620449C00382
:1015300008607047001002400000FFF8FFFFF6FE51
:1015400008ED00E010B5406A0021C185C184FFF7B5
:10155000D3FA10BD0168CA6822F49072CA600168AB
:101560004A6922F001024A61202180F83A1070474E
:1015700010B590F83A10222901D0022010BD8168E0
:10158000B1F5805F11D00169002901681FD0496859
:1015900001F07F03816A4A1C82620B70C18D491E73
:1015A0000904090CC18518D02BE00269816A002A60
:1015B0000268526805D0D2B20A80816A491C8162F1
:1015C000ECE7C2F308020A80816A891CF7E74A68DF
:1015D000816A4B1C83620A70E0E70168CA6822F0E6
:1015E0002002CA600168CA6822F48072CA60016879
:1015F0004A6922F001024A61202180F83A10FFF77F
:10160000FFFB002010BD00002DE9F04104460068FA
:101610000169E26821F44051114301612169A06828
:10162000E26908436169114322680843D16849F2BD
:101630000C6399430143D16020684169A26921F498
:10164000407111434161E1696425B1F5004F95484E
:1016500021684FF032083DD081427AD1FFF746F839
:1016600000EBC00101EB001061688900B0FBF1F6EE
:10167000FFF73CF800EBC00101EB00106168890046
:10168000B0FBF1F0B0FBF5F06FF01801484306EB4A
:10169000800108EB0110B0FBF5F000F0F006FFF759
:1016A00025F800EBC00101EB001061688900B0FB78
:1016B000F1F0B0FBF5F006EB0016FFF717F800EBC2
:1016C000C00101EB001061688900B0FBF1F7FFF782
:1016D0000DF8D0E081423DD1FFF708F800EBC001E2
:1016E00001EB001061684900B0FBF1F0B0FBF5F0D0
:1016F0000601FEF7FBFF00EBC00101EB0010616883
:101700004900B0FBF1F7FEF7F1FF00EBC00101EB80
:10171000001061684900B0FBF1F0B0FBF5F06FF02C
:101720001801484307EB800108EBC100B0FBF5F05E
:1017300000F0F80006EB4006FEF7D8FF00EBC00112
:1017400001EB001061684900B0FBF1F7FEF7CEFF36
:101750003CE055E0FEF7BAFF00EBC00101EB0010E2
:1017600061684900B0FBF1F0B0FBF5F00601FEF74F
:10177000ADFF00EBC00101EB001061684900B0FB58
:10178000F1F7FEF7A3FF00EBC00101EB0010616869
:101790004900B0FBF1F0B0FBF5F06FF018014843E1
:1017A00007EB800108EBC100B0FBF5F000F0F8009A
:1017B00006EB4006FEF78AFF00EBC00101EB0010CC
:1017C00061684900B0FBF1F7FEF780FF00EBC00154
:1017D00001EB001061684900B0FBF1F0B0FBF5F0DF
:1017E0006FF01801484307EB800108EBC100B0FB24
:1017F000F5F000F00700216830448860BDE8F08112
:10180000FEF764FF00EBC00101EB00106168890086
:10181000B0FBF1F6FEF75AFF00EBC00101EB001040
:1018200061688900B0FBF1F0B0FBF5F06FF01801D2
:10183000484306EB800108EB0110B0FBF5F000F027
:10184000F006FEF743FF00EBC00101EB00106168FA
:101850008900B0FBF1F0B0FBF5F006EB0016FEF7E7
:1018600035FF00EBC00101EB001061688900B0FB9F
:10187000F1F7FEF72BFF00EBC00101EB00106168F0
:101880008900B0FBF1F0B0FBF5F06FF018014843B0
:1018900007EB800108EB0110B0FBF5F000F00F0042
:1018A000A9E700000038014090F83910212901D043
:1018B000022070478168B1F5805F016A0BD04A1C35
:1018C0000262026809785160C18C491E0904090C42
:1018D000C1840ED017E009880268C1F30801516085
:1018E00001690029016A02D0491C0162ECE7891CE8
:1018F000FBE70168CA6822F08002CA600068C1681C
:1019000041F04001C160002070472DE9F041984648
:1019100017460E460446069D1DE0681C1BD02DB1DF
:10192000FEF7B4FDA0EB0800A84214D92068C168F6
:1019300021F4D071C1602068416921F00101416149
:10194000202084F8390084F83A00002084F8380018
:101950000320BDE8F0812068006836EA000004D06A
:101960000020B842D9D00020F3E70120F9E70000B9
:101970000148FFF7C3B80000300000200148FFF71E
:10198000BDB8000070000020FEE700000FB4084B57
:1019900010B504A902AA039800F01BF8044602A996
:1019A000002000F081F8204610BC5DF814FB000018
:1019B000A91A000802E008C8121F08C1002AFAD1BB
:1019C00070477047002001E001C1121F002AFBD1BF
:1019D00070472DE9F84F99469246884605460027FC
:1019E00006E025280AD051464A4690476D1C7F1CC8
:1019F00028780028F5D13846BDE8F88F002315F87F
:101A0000011F18462E2915D115F8011F04232A2974
:101A10000DD06FF02F022978A1F13004092C09D8DC
:101A200000EB800002EB400008446D1CF3E758F81F
:101A3000040B6D1C2A78002ADDD0632A07D0732A94
:101A40000FD0104651464A4690477F1C2AE018F8AE
:101A5000042B8DF8002000218DF801106E46012125
:101A600003E058F8046B4FF0FF315A074FF00004C1
:101A700001D409E0641C84420BDA8C42FADB325D4B
:101A8000002AF7D105E0641C8C42FCDB305D0028A5
:101A9000F9D1274404E016F8010B51464A46904715
:101AA000641EF8D26D1CA3E70A68531C0B6010700B
:101AB0007047484000214AF20102C30702D082EA7F
:101AC000500000E04008491C0829F6DB7047000080
:101AD00030B589B00446024609A16846FFF756FFB3
:101AE0004FF480752B46042221460648FFF789F9FA
:101AF0002B46022204A10348FFF783F909B030BD49
:101B000025730000300000200D0A0000FEF7CCFC19
:101B1000FFF7CDFCFFF7D4F91F481E494FF4964557
:101B200000240160C0E901540C26C460C0E90446E9
:101B30008461C461FFF76AF81748184940300160B2
:101B4000C0E90154C460C0E904468461C461FFF780
:101B50005DF81149C8229431A1F1140000F04CF84D
:101B60000F4E42F299144FF4007540F61E478D2235
:101B700021460120FFF700FC002229463046FEF7EF
:101B80007FFC04213846FFF7EBF96420FEF788FB61
:101B9000EDE7000000380140300000200044004024
:101BA0000010014010B5002202210548FEF768FC34
:101BB000BDE8104000224FF400710248FEF760BCFF
:101BC000000801400010014010B501220221054823
:101BD000FEF756FC0122BDE8104051020248FEF714
:101BE0004FBC000000080140001001400168816006
:101BF000C1600021817470478B18C0E900138160B7
:101C0000C1600282002181747047D0E902108142D4
:101C100001D10120704700207047D0E902128A42AA
:101C200001D100207047511CC1604368127899426D
:101C300002D1038AC91AC160104670470000000033
:101C4000000000000102030406070809000000006C
:101C500001020304741C0008000000203000000092
:101C6000B4190008A41C000830000020A0070000E0
:101C7000C41900082C010000000000000000000052
:101C80000000000000000000000000000000000054
:101C90000000000001000000100000000000000033
:041CA00000366E019B
:0400000508000121CD
:00000001FF
